{
  "_format": "hh-sol-artifact-1",
  "contractName": "FusioFantasyGameV2",
  "sourceName": "contracts/FusioFantasyGameV2.sol",
  "abi": [
    {
      "inputs": [],
      "stateMutability": "nonpayable",
      "type": "constructor"
    },
    {
      "anonymous": false,
      "inputs": [
        {
          "indexed": true,
          "internalType": "uint256",
          "name": "gameId",
          "type": "uint256"
        },
        {
          "indexed": false,
          "internalType": "uint256",
          "name": "amount",
          "type": "uint256"
        }
      ],
      "name": "AdminAddedToPrizePool",
      "type": "event"
    },
    {
      "anonymous": false,
      "inputs": [
        {
          "indexed": false,
          "internalType": "address",
          "name": "previousAdmin",
          "type": "address"
        },
        {
          "indexed": false,
          "internalType": "address",
          "name": "newAdmin",
          "type": "address"
        }
      ],
      "name": "AdminChanged",
      "type": "event"
    },
    {
      "anonymous": false,
      "inputs": [
        {
          "indexed": false,
          "internalType": "uint256",
          "name": "newPercentage",
          "type": "uint256"
        }
      ],
      "name": "AdminFeePercentageUpdated",
      "type": "event"
    },
    {
      "anonymous": false,
      "inputs": [
        {
          "indexed": true,
          "internalType": "address",
          "name": "user",
          "type": "address"
        },
        {
          "indexed": false,
          "internalType": "uint256",
          "name": "adminFee",
          "type": "uint256"
        }
      ],
      "name": "AdminFeeTransferred",
      "type": "event"
    },
    {
      "anonymous": false,
      "inputs": [
        {
          "indexed": false,
          "internalType": "address",
          "name": "newWallet",
          "type": "address"
        }
      ],
      "name": "AdminWalletUpdated",
      "type": "event"
    },
    {
      "anonymous": false,
      "inputs": [
        {
          "indexed": true,
          "internalType": "uint256",
          "name": "gameId",
          "type": "uint256"
        },
        {
          "indexed": false,
          "internalType": "uint256",
          "name": "amount",
          "type": "uint256"
        }
      ],
      "name": "AdminWithdrawFromPrizePool",
      "type": "event"
    },
    {
      "anonymous": false,
      "inputs": [
        {
          "indexed": true,
          "internalType": "address",
          "name": "user",
          "type": "address"
        },
        {
          "indexed": false,
          "internalType": "uint256",
          "name": "amount",
          "type": "uint256"
        }
      ],
      "name": "BalanceWithdrawn",
      "type": "event"
    },
    {
      "anonymous": false,
      "inputs": [
        {
          "indexed": false,
          "internalType": "uint256[]",
          "name": "portfolioIds",
          "type": "uint256[]"
        },
        {
          "indexed": false,
          "internalType": "uint256[]",
          "name": "amounts",
          "type": "uint256[]"
        }
      ],
      "name": "BatchRewardAssigned",
      "type": "event"
    },
    {
      "anonymous": false,
      "inputs": [
        {
          "indexed": true,
          "internalType": "address",
          "name": "beacon",
          "type": "address"
        }
      ],
      "name": "BeaconUpgraded",
      "type": "event"
    },
    {
      "anonymous": false,
      "inputs": [
        {
          "indexed": true,
          "internalType": "uint256",
          "name": "gameId",
          "type": "uint256"
        },
        {
          "indexed": false,
          "internalType": "uint256",
          "name": "startTime",
          "type": "uint256"
        },
        {
          "indexed": false,
          "internalType": "uint256",
          "name": "endTime",
          "type": "uint256"
        },
        {
          "indexed": false,
          "internalType": "uint256",
          "name": "entryFee",
          "type": "uint256"
        },
        {
          "indexed": false,
          "internalType": "uint256",
          "name": "entryCap",
          "type": "uint256"
        }
      ],
      "name": "GameCreated",
      "type": "event"
    },
    {
      "anonymous": false,
      "inputs": [
        {
          "indexed": true,
          "internalType": "uint256",
          "name": "gameId",
          "type": "uint256"
        },
        {
          "indexed": false,
          "internalType": "enum FusioFantasyGameV2.GameStatus",
          "name": "status",
          "type": "uint8"
        }
      ],
      "name": "GameStatusUpdated",
      "type": "event"
    },
    {
      "anonymous": false,
      "inputs": [
        {
          "indexed": false,
          "internalType": "uint8",
          "name": "version",
          "type": "uint8"
        }
      ],
      "name": "Initialized",
      "type": "event"
    },
    {
      "anonymous": false,
      "inputs": [
        {
          "indexed": true,
          "internalType": "uint256",
          "name": "gameId",
          "type": "uint256"
        },
        {
          "indexed": true,
          "internalType": "uint256",
          "name": "portfolioId",
          "type": "uint256"
        },
        {
          "indexed": false,
          "internalType": "uint256",
          "name": "entryCount",
          "type": "uint256"
        },
        {
          "indexed": false,
          "internalType": "uint256",
          "name": "prizePool",
          "type": "uint256"
        },
        {
          "indexed": true,
          "internalType": "address",
          "name": "owner",
          "type": "address"
        }
      ],
      "name": "PortfolioCreated",
      "type": "event"
    },
    {
      "anonymous": false,
      "inputs": [
        {
          "indexed": true,
          "internalType": "uint256",
          "name": "portfolioId",
          "type": "uint256"
        },
        {
          "indexed": true,
          "internalType": "address",
          "name": "payer",
          "type": "address"
        },
        {
          "indexed": false,
          "internalType": "uint256",
          "name": "entryFee",
          "type": "uint256"
        },
        {
          "indexed": false,
          "internalType": "uint256",
          "name": "adminFee",
          "type": "uint256"
        }
      ],
      "name": "PortfolioEntryFeePaid",
      "type": "event"
    },
    {
      "anonymous": false,
      "inputs": [
        {
          "indexed": true,
          "internalType": "uint256",
          "name": "portfolioId",
          "type": "uint256"
        },
        {
          "indexed": true,
          "internalType": "address",
          "name": "owner",
          "type": "address"
        },
        {
          "indexed": false,
          "internalType": "uint256",
          "name": "amount",
          "type": "uint256"
        }
      ],
      "name": "RewardAssigned",
      "type": "event"
    },
    {
      "anonymous": false,
      "inputs": [
        {
          "indexed": true,
          "internalType": "bytes32",
          "name": "role",
          "type": "bytes32"
        },
        {
          "indexed": true,
          "internalType": "bytes32",
          "name": "previousAdminRole",
          "type": "bytes32"
        },
        {
          "indexed": true,
          "internalType": "bytes32",
          "name": "newAdminRole",
          "type": "bytes32"
        }
      ],
      "name": "RoleAdminChanged",
      "type": "event"
    },
    {
      "anonymous": false,
      "inputs": [
        {
          "indexed": true,
          "internalType": "bytes32",
          "name": "role",
          "type": "bytes32"
        },
        {
          "indexed": true,
          "internalType": "address",
          "name": "account",
          "type": "address"
        },
        {
          "indexed": true,
          "internalType": "address",
          "name": "sender",
          "type": "address"
        }
      ],
      "name": "RoleGranted",
      "type": "event"
    },
    {
      "anonymous": false,
      "inputs": [
        {
          "indexed": true,
          "internalType": "bytes32",
          "name": "role",
          "type": "bytes32"
        },
        {
          "indexed": true,
          "internalType": "address",
          "name": "account",
          "type": "address"
        },
        {
          "indexed": true,
          "internalType": "address",
          "name": "sender",
          "type": "address"
        }
      ],
      "name": "RoleRevoked",
      "type": "event"
    },
    {
      "anonymous": false,
      "inputs": [
        {
          "indexed": true,
          "internalType": "address",
          "name": "implementation",
          "type": "address"
        }
      ],
      "name": "Upgraded",
      "type": "event"
    },
    {
      "inputs": [],
      "name": "DEFAULT_ADMIN_ROLE",
      "outputs": [
        {
          "internalType": "bytes32",
          "name": "",
          "type": "bytes32"
        }
      ],
      "stateMutability": "view",
      "type": "function"
    },
    {
      "inputs": [],
      "name": "GAME_MANAGER_ROLE",
      "outputs": [
        {
          "internalType": "bytes32",
          "name": "",
          "type": "bytes32"
        }
      ],
      "stateMutability": "view",
      "type": "function"
    },
    {
      "inputs": [],
      "name": "MAX_ADMIN_FEE_PERCENTAGE",
      "outputs": [
        {
          "internalType": "uint256",
          "name": "",
          "type": "uint256"
        }
      ],
      "stateMutability": "view",
      "type": "function"
    },
    {
      "inputs": [
        {
          "internalType": "uint256",
          "name": "gameId",
          "type": "uint256"
        },
        {
          "internalType": "uint256",
          "name": "amount",
          "type": "uint256"
        }
      ],
      "name": "adminAddToPrizePool",
      "outputs": [],
      "stateMutability": "nonpayable",
      "type": "function"
    },
    {
      "inputs": [],
      "name": "adminFeePercentage",
      "outputs": [
        {
          "internalType": "uint256",
          "name": "",
          "type": "uint256"
        }
      ],
      "stateMutability": "view",
      "type": "function"
    },
    {
      "inputs": [],
      "name": "adminWallet",
      "outputs": [
        {
          "internalType": "address",
          "name": "",
          "type": "address"
        }
      ],
      "stateMutability": "view",
      "type": "function"
    },
    {
      "inputs": [
        {
          "internalType": "uint256",
          "name": "gameId",
          "type": "uint256"
        },
        {
          "internalType": "uint256",
          "name": "amount",
          "type": "uint256"
        }
      ],
      "name": "adminWithdrawFromPrizePool",
      "outputs": [],
      "stateMutability": "nonpayable",
      "type": "function"
    },
    {
      "inputs": [
        {
          "internalType": "uint256",
          "name": "amount",
          "type": "uint256"
        }
      ],
      "name": "adminWithdrawUSDC",
      "outputs": [],
      "stateMutability": "nonpayable",
      "type": "function"
    },
    {
      "inputs": [
        {
          "internalType": "uint256",
          "name": "portfolioId",
          "type": "uint256"
        },
        {
          "internalType": "uint256",
          "name": "amount",
          "type": "uint256"
        },
        {
          "internalType": "bytes",
          "name": "signature",
          "type": "bytes"
        }
      ],
      "name": "assignReward",
      "outputs": [],
      "stateMutability": "nonpayable",
      "type": "function"
    },
    {
      "inputs": [
        {
          "internalType": "uint256[]",
          "name": "portfolioIds",
          "type": "uint256[]"
        },
        {
          "internalType": "uint256[]",
          "name": "amounts",
          "type": "uint256[]"
        },
        {
          "internalType": "bytes",
          "name": "signature",
          "type": "bytes"
        }
      ],
      "name": "batchAssignRewards",
      "outputs": [],
      "stateMutability": "nonpayable",
      "type": "function"
    },
    {
      "inputs": [
        {
          "internalType": "uint256",
          "name": "gameId",
          "type": "uint256"
        },
        {
          "internalType": "uint256",
          "name": "startTime",
          "type": "uint256"
        },
        {
          "internalType": "uint256",
          "name": "endTime",
          "type": "uint256"
        },
        {
          "internalType": "uint256",
          "name": "entryFee",
          "type": "uint256"
        },
        {
          "internalType": "uint256",
          "name": "entryCap",
          "type": "uint256"
        }
      ],
      "name": "createGame",
      "outputs": [],
      "stateMutability": "nonpayable",
      "type": "function"
    },
    {
      "inputs": [
        {
          "internalType": "uint256",
          "name": "gameId",
          "type": "uint256"
        },
        {
          "internalType": "uint256",
          "name": "portfolioId",
          "type": "uint256"
        }
      ],
      "name": "createPortfolio",
      "outputs": [],
      "stateMutability": "nonpayable",
      "type": "function"
    },
    {
      "inputs": [
        {
          "internalType": "uint256",
          "name": "",
          "type": "uint256"
        }
      ],
      "name": "games",
      "outputs": [
        {
          "internalType": "uint256",
          "name": "startTime",
          "type": "uint256"
        },
        {
          "internalType": "uint256",
          "name": "endTime",
          "type": "uint256"
        },
        {
          "internalType": "uint256",
          "name": "totalPrizePool",
          "type": "uint256"
        },
        {
          "internalType": "uint256",
          "name": "totalRewardDistributed",
          "type": "uint256"
        },
        {
          "internalType": "uint256",
          "name": "entryFee",
          "type": "uint256"
        },
        {
          "internalType": "uint256",
          "name": "entryCap",
          "type": "uint256"
        },
        {
          "internalType": "uint256",
          "name": "entryCount",
          "type": "uint256"
        },
        {
          "internalType": "enum FusioFantasyGameV2.GameStatus",
          "name": "status",
          "type": "uint8"
        }
      ],
      "stateMutability": "view",
      "type": "function"
    },
    {
      "inputs": [
        {
          "internalType": "uint256",
          "name": "gameId",
          "type": "uint256"
        }
      ],
      "name": "getGameDetails",
      "outputs": [
        {
          "internalType": "uint256",
          "name": "startTime",
          "type": "uint256"
        },
        {
          "internalType": "uint256",
          "name": "endTime",
          "type": "uint256"
        },
        {
          "internalType": "uint256",
          "name": "totalPrizePool",
          "type": "uint256"
        },
        {
          "internalType": "uint256",
          "name": "totalRewardDistributed",
          "type": "uint256"
        },
        {
          "internalType": "uint256",
          "name": "entryCount",
          "type": "uint256"
        }
      ],
      "stateMutability": "view",
      "type": "function"
    },
    {
      "inputs": [
        {
          "internalType": "uint256",
          "name": "portfolioId",
          "type": "uint256"
        }
      ],
      "name": "getPortfolioGameId",
      "outputs": [
        {
          "internalType": "uint256",
          "name": "",
          "type": "uint256"
        }
      ],
      "stateMutability": "view",
      "type": "function"
    },
    {
      "inputs": [
        {
          "internalType": "uint256",
          "name": "portfolioId",
          "type": "uint256"
        }
      ],
      "name": "getPortfolioOwner",
      "outputs": [
        {
          "internalType": "address",
          "name": "",
          "type": "address"
        }
      ],
      "stateMutability": "view",
      "type": "function"
    },
    {
      "inputs": [
        {
          "internalType": "address",
          "name": "user",
          "type": "address"
        },
        {
          "internalType": "uint256",
          "name": "gameId",
          "type": "uint256"
        }
      ],
      "name": "getRequiredUSDCApproval",
      "outputs": [
        {
          "internalType": "uint256",
          "name": "",
          "type": "uint256"
        }
      ],
      "stateMutability": "view",
      "type": "function"
    },
    {
      "inputs": [
        {
          "internalType": "bytes32",
          "name": "role",
          "type": "bytes32"
        }
      ],
      "name": "getRoleAdmin",
      "outputs": [
        {
          "internalType": "bytes32",
          "name": "",
          "type": "bytes32"
        }
      ],
      "stateMutability": "view",
      "type": "function"
    },
    {
      "inputs": [
        {
          "internalType": "address",
          "name": "user",
          "type": "address"
        }
      ],
      "name": "getUserBalance",
      "outputs": [
        {
          "internalType": "uint256",
          "name": "",
          "type": "uint256"
        }
      ],
      "stateMutability": "view",
      "type": "function"
    },
    {
      "inputs": [
        {
          "internalType": "bytes32",
          "name": "role",
          "type": "bytes32"
        },
        {
          "internalType": "address",
          "name": "account",
          "type": "address"
        }
      ],
      "name": "grantRole",
      "outputs": [],
      "stateMutability": "nonpayable",
      "type": "function"
    },
    {
      "inputs": [
        {
          "internalType": "bytes32",
          "name": "role",
          "type": "bytes32"
        },
        {
          "internalType": "address",
          "name": "account",
          "type": "address"
        }
      ],
      "name": "hasRole",
      "outputs": [
        {
          "internalType": "bool",
          "name": "",
          "type": "bool"
        }
      ],
      "stateMutability": "view",
      "type": "function"
    },
    {
      "inputs": [
        {
          "internalType": "address",
          "name": "_usdcToken",
          "type": "address"
        },
        {
          "internalType": "address",
          "name": "_adminWallet",
          "type": "address"
        },
        {
          "internalType": "address",
          "name": "_gameManagerWallet",
          "type": "address"
        }
      ],
      "name": "initialize",
      "outputs": [],
      "stateMutability": "nonpayable",
      "type": "function"
    },
    {
      "inputs": [
        {
          "internalType": "uint256",
          "name": "portfolioId",
          "type": "uint256"
        }
      ],
      "name": "isRewardAssigned",
      "outputs": [
        {
          "internalType": "bool",
          "name": "",
          "type": "bool"
        }
      ],
      "stateMutability": "view",
      "type": "function"
    },
    {
      "inputs": [],
      "name": "nonce",
      "outputs": [
        {
          "internalType": "uint256",
          "name": "",
          "type": "uint256"
        }
      ],
      "stateMutability": "view",
      "type": "function"
    },
    {
      "inputs": [
        {
          "internalType": "uint256",
          "name": "",
          "type": "uint256"
        }
      ],
      "name": "portfolioGameId",
      "outputs": [
        {
          "internalType": "uint256",
          "name": "",
          "type": "uint256"
        }
      ],
      "stateMutability": "view",
      "type": "function"
    },
    {
      "inputs": [
        {
          "internalType": "uint256",
          "name": "",
          "type": "uint256"
        }
      ],
      "name": "portfolioOwner",
      "outputs": [
        {
          "internalType": "address",
          "name": "",
          "type": "address"
        }
      ],
      "stateMutability": "view",
      "type": "function"
    },
    {
      "inputs": [],
      "name": "proxiableUUID",
      "outputs": [
        {
          "internalType": "bytes32",
          "name": "",
          "type": "bytes32"
        }
      ],
      "stateMutability": "view",
      "type": "function"
    },
    {
      "inputs": [
        {
          "internalType": "bytes32",
          "name": "role",
          "type": "bytes32"
        },
        {
          "internalType": "address",
          "name": "account",
          "type": "address"
        }
      ],
      "name": "renounceRole",
      "outputs": [],
      "stateMutability": "nonpayable",
      "type": "function"
    },
    {
      "inputs": [
        {
          "internalType": "bytes32",
          "name": "role",
          "type": "bytes32"
        },
        {
          "internalType": "address",
          "name": "account",
          "type": "address"
        }
      ],
      "name": "revokeRole",
      "outputs": [],
      "stateMutability": "nonpayable",
      "type": "function"
    },
    {
      "inputs": [
        {
          "internalType": "uint256",
          "name": "",
          "type": "uint256"
        }
      ],
      "name": "rewardAssigned",
      "outputs": [
        {
          "internalType": "bool",
          "name": "",
          "type": "bool"
        }
      ],
      "stateMutability": "view",
      "type": "function"
    },
    {
      "inputs": [
        {
          "internalType": "uint256",
          "name": "newPercentage",
          "type": "uint256"
        }
      ],
      "name": "setAdminFeePercentage",
      "outputs": [],
      "stateMutability": "nonpayable",
      "type": "function"
    },
    {
      "inputs": [
        {
          "internalType": "address",
          "name": "newWallet",
          "type": "address"
        }
      ],
      "name": "setAdminWallet",
      "outputs": [],
      "stateMutability": "nonpayable",
      "type": "function"
    },
    {
      "inputs": [
        {
          "internalType": "bytes4",
          "name": "interfaceId",
          "type": "bytes4"
        }
      ],
      "name": "supportsInterface",
      "outputs": [
        {
          "internalType": "bool",
          "name": "",
          "type": "bool"
        }
      ],
      "stateMutability": "view",
      "type": "function"
    },
    {
      "inputs": [
        {
          "internalType": "uint256",
          "name": "gameId",
          "type": "uint256"
        }
      ],
      "name": "updateGameStatus",
      "outputs": [],
      "stateMutability": "nonpayable",
      "type": "function"
    },
    {
      "inputs": [
        {
          "internalType": "address",
          "name": "newImplementation",
          "type": "address"
        }
      ],
      "name": "upgradeTo",
      "outputs": [],
      "stateMutability": "nonpayable",
      "type": "function"
    },
    {
      "inputs": [
        {
          "internalType": "address",
          "name": "newImplementation",
          "type": "address"
        },
        {
          "internalType": "bytes",
          "name": "data",
          "type": "bytes"
        }
      ],
      "name": "upgradeToAndCall",
      "outputs": [],
      "stateMutability": "payable",
      "type": "function"
    },
    {
      "inputs": [],
      "name": "usdcToken",
      "outputs": [
        {
          "internalType": "contract IERC20Upgradeable",
          "name": "",
          "type": "address"
        }
      ],
      "stateMutability": "view",
      "type": "function"
    },
    {
      "inputs": [
        {
          "internalType": "address",
          "name": "",
          "type": "address"
        }
      ],
      "name": "userBalance",
      "outputs": [
        {
          "internalType": "uint256",
          "name": "",
          "type": "uint256"
        }
      ],
      "stateMutability": "view",
      "type": "function"
    },
    {
      "inputs": [
        {
          "internalType": "uint256",
          "name": "amount",
          "type": "uint256"
        }
      ],
      "name": "withdrawBalance",
      "outputs": [],
      "stateMutability": "nonpayable",
      "type": "function"
    }
  ],
  "bytecode": "0x60a0806040523462000142573060805260005460ff8160081c16159182809362000134575b80156200011b575b15620000c2575060ff19811660011760005581620000af575b5062000073575b60405161352390816200014882396080518181816117ae015281816118ae0152611b7c0152f35b61ff0019600054166000557f7f26b83ff96e1f2b6a682f133852f6798a09c465da95921460cefb3847402498602060405160018152a16200004c565b61ffff1916610101176000553862000045565b62461bcd60e51b815260206004820152602e60248201527f496e697469616c697a61626c653a20636f6e747261637420697320616c72656160448201526d191e481a5b9a5d1a585b1a5e995960921b6064820152608490fd5b50303b1580156200002c5750600160ff8316146200002c565b50600160ff83161062000024565b600080fdfe608080604052600436101561001357600080fd5b60003560e01c9081630103c92b146121b45750806301ffc9a71461215e578063117a5b90146120d857806311eac855146120ae57806317e9ad98146114085780631b31abda14612055578063248a9ca3146120265780632e1226fe14611ff75780632f2ff15d14611f445780633508293314611e8457806336568abe14611df25780633659cfe614611b5857806336b19cd714611b2e578063404968a91461176e5780634773489214611af35780634f1ef2861461185f57806352d1902d1461179b5780635d0c5bf61461176e57806365c4bd921461143a57806365f64dba1461140857806371fa5abb146111d557806376eb2a2f14610f005780637efed65e14610f54578063831490f914610f35578063840d38b714610f0057806391d1485414610eb3578063952e330514610b85578063a217fddf14610b69578063affed0e014610b4a578063b711bb0c14610a18578063c0c53b8b14610683578063d547741f14610642578063d710251114610626578063da76d5cd14610546578063ef0fde5e146104a3578063f31ceaaa146103a8578063fa5ab7c7146102a0578063fe9d0872146101fa5763ff6fcdbd146101cc57600080fd5b346101f55760003660031901126101f55760206040516000805160206134ce8339815191528152f35b600080fd5b346101f55760203660031901126101f557600435610216612369565b600a811161025b5761012f8054820361022b57005b817feeb701908e665906dfa8ea471a2ca518642e4dd59aa499745510fbe52857a0019260209255604051908152a1005b60405162461bcd60e51b815260206004820152601b60248201527f41646d696e206665652063616e6e6f74206578636565642031302500000000006044820152606490fd5b346101f5576102ae36612353565b6102b6612369565b6102be612c95565b6102c9811515613190565b8160005261013160205260406000206102e481541515612c05565b60028101916102f96003845493015483612c88565b8111610357577f693b47e3e6ba80f3e12957f197fc3201c8610737b3183a78c6aca6e90740cccf9261032d82602094612c88565b905561012d5461034990829033906001600160a01b031661331b565b604051908152a26001609755005b60405162461bcd60e51b815260206004820152602360248201527f416d6f756e74206578636565647320617661696c61626c65207072697a6520706044820152621bdbdb60ea1b6064820152608490fd5b346101f55760203660031901126101f5576004356103c461255d565b8060005261013160205260406000206103df81541515612c05565b6103ee60018201544211612c47565b600381015460028201540361043857600701600260ff198254161790557f4e27b06662347b2bd7ed6e8bde0a4b793dae7d7d05b102ef743cbd9c8d824e4e602060405160028152a2005b60405162461bcd60e51b815260206004820152603a60248201527f416c6c2072657761726473206d7573742062652064697374726962757465642060448201527f6265666f726520636f6d706c6574696e67207468652067616d650000000000006064820152608490fd5b346101f55760207fb88ef0201b42db790a1df280dc3380bb75377a6825a0bdb877ffc9ba52ea5c596104d436612353565b6104df939193612369565b6104e7612c95565b6104f2811515613190565b8360005261013182526002604060002061050e81541515612c05565b61012d5461052a908490309033906001600160a01b03166131dc565b01610536828254612a73565b9055604051908152a26001609755005b346101f55760203660031901126101f557600435610562612c95565b61056d811515613190565b336000526101358060205281604060002054106105ea5733600052602052604060002061059b828254612c88565b905561012d546105b790829033906001600160a01b031661331b565b6040519081527fddc398b321237a8d40ac914388309c2f52a08c134e4dc4ce61e32f57cb7d80f160203392a26001609755005b60405162461bcd60e51b8152602060048201526014602482015273496e73756666696369656e742062616c616e636560601b6044820152606490fd5b346101f55760003660031901126101f5576020604051600a8152f35b346101f55760403660031901126101f557610681600435610661612201565b9080600052606560205261067c600160406000200154612691565b6127ea565b005b346101f55760603660031901126101f55761069c6121eb565b6106a4612201565b906001600160a01b03604435818116908190036101f55760005460ff92838260081c161594858096610a0c575b80156109f6575b1561099a57819060ff199387600186831617600055610988575b501695861561094357169485156108fe5782156108ad576001600160601b0360a01b9061012d90828254161790558561013091825416179055600a61012f556107618360005460081c1661074581612ba5565b61074e81612ba5565b61075781612ba5565b6001609755612ba5565b60008581527fffdfc1249c027f9191656349feb0761381bb32c9f557e01f419fd08754bf5a1b602090815260409091205490959084161561085e575b506000805160206134ce8339815191529283600052606586526040600020836000528652604060002054161561080e575b5050506107d757005b7f7f26b83ff96e1f2b6a682f133852f6798a09c465da95921460cefb38474024989061ff00196000541660005560405160018152a1005b82600052606585526040600020826000528552600160406000209182541617905533917f2f8788117e7eff1d82e926ec794901d17c78024a50270940304540a733656f0d600080a48280806107ce565b600080526065865260406000208160005286526040600020600183825416179055339060007f2f8788117e7eff1d82e926ec794901d17c78024a50270940304540a733656f0d8180a48561079d565b60405162461bcd60e51b815260206004820152602360248201527f496e76616c69642067616d65206d616e616765722077616c6c6574206164647260448201526265737360e81b6064820152608490fd5b60405162461bcd60e51b815260206004820152601c60248201527f496e76616c69642061646d696e2077616c6c65742061646472657373000000006044820152606490fd5b60405162461bcd60e51b815260206004820152601a60248201527f496e76616c6964205553444320746f6b656e20616464726573730000000000006044820152606490fd5b61ffff191661010117600055886106f2565b60405162461bcd60e51b815260206004820152602e60248201527f496e697469616c697a61626c653a20636f6e747261637420697320616c72656160448201526d191e481a5b9a5d1a585b1a5e995960921b6064820152608490fd5b50303b1580156106d857506001858416146106d8565b506001858416106106d1565b346101f5576020806003193601126101f55760043590610a36612369565b610a3e612c95565b610a49821515613190565b61012d546040516370a0823160e01b81523060048201526001600160a01b03909116908281602481855afa8015610b3e578491600091610b0d575b5010610ac85790610ab8837fddc398b321237a8d40ac914388309c2f52a08c134e4dc4ce61e32f57cb7d80f193339061331b565b6040519283523392a26001609755005b60405162461bcd60e51b815260048101839052601d60248201527f496e73756666696369656e7420636f6e74726163742062616c616e63650000006044820152606490fd5b809250848092503d8311610b37575b610b268183612283565b810103126101f55783905185610a84565b503d610b1c565b6040513d6000823e3d90fd5b346101f55760003660031901126101f557602061012e54604051908152f35b346101f55760003660031901126101f557602060405160008152f35b346101f557610b9336612353565b610b9b612c95565b610ba481613354565b816000526101316020526040600020908154610bc1811515612c05565b421015610e7757600081815261013260205260409020546001600160a01b0316610e3257600682015460058301541115610ded57600482015492336000526101356020526040600020549361012f548181810204811482151715610d7d5760649082020494818110610d93575033600052610135602052610c486040600020918254612c88565b90555b61012d5461013054610c6b9186916001600160a01b03908116911661331b565b816000526101326020526040600020336001600160601b0360a01b82541617905561013360205280604060002055610134602052604060002060ff19815416905560068301549060018201809211610d7d578290826006860155600485015494610ce46002610cda8989612c88565b9201918254612a73565b80915560405193845260208401527f131b5da1615b0ce5a0f89f5322452fab97d270f65c63c72cb7628d6f97d62d5e60403394a46040519182528260208301527f22a7b7cb0480f7f87b5a43a9df1a7748ecc4ca65a9c3dc8e3af349096e507c4660403393a36040519081527feca449144aea17c38e3a69dacd0f044762fc2bddbe05375f26bbbbe86390acca60203392a26001609755005b634e487b7160e01b600052601160045260246000fd5b908115610dd257610dcd91610da791612c88565b336000818152610135602052604081205561012d543091906001600160a01b03166131dc565b610c4b565b61012d54610dcd9250309033906001600160a01b03166131dc565b60405162461bcd60e51b815260206004820152601f60248201527f456e74727920636170207265616368656420666f7220746869732067616d65006044820152606490fd5b60405162461bcd60e51b815260206004820152601b60248201527f506f7274666f6c696f20494420616c72656164792065786973747300000000006044820152606490fd5b60405162461bcd60e51b815260206004820152601460248201527311d85b5948185b1c9958591e481cdd185c9d195960621b6044820152606490fd5b346101f55760403660031901126101f557610ecc612201565b600435600052606560205260406000209060018060a01b0316600052602052602060ff604060002054166040519015158152f35b346101f55760203660031901126101f557600435600052610132602052602060018060a01b0360406000205416604051908152f35b346101f55760003660031901126101f557602061012f54604051908152f35b346101f55760a03660031901126101f5576004356024803590604490813560649283359260843594610f8461255d565b876000526101319060209382855260406000205461119f574289111561116a57888611156111375786156111035787156110cf5750506040519061010082018281106001600160401b038211176110ba57916007918a94936040528982528582018781526040830160008152606084016000815260808501918b835260a08601938d855260c08701956000875260e088019a60018c526000528b526040600020965187555160018701555160028601555160038501555160048401555160058301555160068201550191519060038210156110a657509160809593917f49f51c2844caf12143ce2913b7e0d1e06ecd927cd95d302bde9def52d149141a97959360ff8019835416911617905560405194855284015260408301526060820152a2005b634e487b7160e01b60009081526021600452fd5b83634e487b7160e01b60005260416004526000fd5b700496e76616c696420656e7472792063617607c1b85916011866040519462461bcd60e51b86526004860152840152820152fd5b70496e76616c696420656e7472792066656560781b85916011866040519462461bcd60e51b86526004860152840152820152fd5b6f496e76616c696420656e642074696d6560801b85916010866040519462461bcd60e51b86526004860152840152820152fd5b71496e76616c69642073746172742074696d6560701b85916012866040519462461bcd60e51b86526004860152840152820152fd5b7247616d6520616c72656164792065786973747360681b85916013866040519462461bcd60e51b86526004860152840152820152fd5b346101f55760603660031901126101f5576024356004356044356001600160401b0381116101f55761120b903690600401612326565b909261121561255d565b611220811515612dd3565b61122983613354565b82600052602090610132825260018060a01b0380604060002054169561013384526040600020546000526101318452604060002091611269881515612e0d565b866000526101349182865261128660ff6040600020541615612e59565b60ff6007850154169660038810156113f257611375879361136d889361136760019661135f8f7f40cea6a517c46e3041942d9b88a525b986aa75d5fe283b97daea8f241519e31d9f61130160038f6002906112e682611309961415612ea5565b6112f48f8201544211612c47565b01549f019e8f5490612c88565b8a1115612eea565b61012e9a8b5499604051918201927f71840a713e5064d65421a50f63353837b6abd76d205c6af90496ec2bf6526ca68452604083015260608201528960808201526080815261135781612232565b519020613397565b9236916122bf565b9061307a565b929092612f76565b6000805160206134ce833981519152600052606589526040600020911660005287526113a860ff60406000205416612f36565b0190558560005283526040600020600160ff1982541617905585600052610135835260406000206113da838254612a73565b90556113e7828254612a73565b9055604051908152a3005b634e487b7160e01b600052602160045260246000fd5b346101f55760203660031901126101f557600435600052610134602052602060ff604060002054166040519015158152f35b346101f55760603660031901126101f5576001600160401b036004358181116101f55761146b9036906004016122f6565b6024358381116101f5576114839036906004016122f6565b936044359081116101f55761149c903690600401612326565b906114a561255d565b8584036117295760019061156a611562604051946113678a89886114cf8d60208301938491613141565b03986114e3601f199a8b8101835282612283565b5190209761150b60405191826114ff8d60208301968791613141565b03908101835282612283565b5190209461135f61012e988954976040519060208201927ffcb8beb0f323417bb4485c89e53cc02c6b4e2fe7946bc26e622d2c67a5fb81fa8452604083015260608201528860808201526080815261135781612232565b919091612f76565b60a083901b8390031660009081527f81f38e9243f5d7e7b286236b2559ecb000fe771b26a492da138bad81b0085fe160205260409020546115ad9060ff16612f36565b01905560005b82811061160b5750611606907fa70ac6d98478e6e7564a13bdd89a907b72ccb0280757588bf6683683553e7e5d946115f860405195869560408752604087019161316c565b91848303602086015261316c565b0390a1005b61161681848661315c565b3561162282878561315c565b359061162f821515612dd3565b8060005261013260205260018060a01b03604060002054169161013360205260406000205460005261013160205260406000209261166e811515612e0d565b8260005261013460205261168a60ff6040600020541615612e59565b60ff6007850154169260038410156113f2576116db6116d36003611716966116b6600280921415612ea5565b6116c560018a01544211612c47565b880154970196875490612c88565b841115612eea565b6000526101346020526040600020600160ff19825416179055600052610135602052604060002061170d828254612a73565b90558254612a73565b90556000198114610d7d576001016115b3565b60405162461bcd60e51b815260206004820152601860248201527f4d69736d61746368656420696e707574206c656e6774687300000000000000006044820152606490fd5b346101f55760203660031901126101f5576004356000526101336020526020604060002054604051908152f35b346101f55760003660031901126101f5577f00000000000000000000000000000000000000000000000000000000000000006001600160a01b031630036117f45760206040516000805160206134ae8339815191528152f35b60405162461bcd60e51b815260206004820152603860248201527f555550535570677261646561626c653a206d757374206e6f742062652063616c60448201527f6c6564207468726f7567682064656c656761746563616c6c00000000000000006064820152608490fd5b60403660031901126101f5576118736121eb565b6024356001600160401b0381116101f557366023820112156101f5576118a39036906024816004013591016122bf565b906001600160a01b037f00000000000000000000000000000000000000000000000000000000000000008116906118dc30831415612860565b6118f96000805160206134ae8339815191529282845416146128c1565b611901612369565b7f4910fdfa16fed3260ed0e7147f7cc6da11a60208b5b9406d12a635614ffd91435460ff16156119375750506106819150612922565b6040516352d1902d60e01b81526020939291831691908481600481865afa60009181611ac4575b506119bf5760405162461bcd60e51b815260048101869052602e60248201527f45524331393637557067726164653a206e657720696d706c656d656e7461746960448201526d6f6e206973206e6f74205555505360901b6064820152608490fd5b03611a6d576119cd82612922565b7fbc7cd75a20ee27fd9adebab32041f755214dbc6bffa90cc0225b39da2e5c2d3b600080a2825115801590611a65575b611a0357005b6000806106819460405194611a1786612217565b602786527f416464726573733a206c6f772d6c6576656c2064656c65676174652063616c6c81870152660819985a5b195960ca1b604087015281519101845af4611a5f6129b2565b916129e2565b5060016119fd565b60405162461bcd60e51b815260048101849052602960248201527f45524331393637557067726164653a20756e737570706f727465642070726f786044820152681a58589b195555525160ba1b6064820152608490fd5b9091508581813d8311611aec575b611adc8183612283565b810103126101f55751908761195e565b503d611ad2565b346101f55760203660031901126101f5576001600160a01b03611b146121eb565b166000526101356020526020604060002054604051908152f35b346101f55760003660031901126101f557610130546040516001600160a01b039091168152602090f35b346101f5576020806003193601126101f557611b726121eb565b6001600160a01b037f000000000000000000000000000000000000000000000000000000000000000081169290611bab30851415612860565b611bc86000805160206134ae8339815191529482865416146128c1565b611bd0612369565b60405193828501918583106001600160401b03841117611ddc57826040526000865260ff7f4910fdfa16fed3260ed0e7147f7cc6da11a60208b5b9406d12a635614ffd91435416600014611c2c57505050506106819150612922565b84939416906040516352d1902d60e01b81528581600481865afa60009181611dad575b50611cb05760405162461bcd60e51b815260048101879052602e60248201527f45524331393637557067726164653a206e657720696d706c656d656e7461746960448201526d6f6e206973206e6f74205555505360901b6064820152608490fd5b03611d5657611cbe83612922565b7fbc7cd75a20ee27fd9adebab32041f755214dbc6bffa90cc0225b39da2e5c2d3b600080a2835115801590611d4e575b611cf457005b60008091610681957f416464726573733a206c6f772d6c6576656c2064656c65676174652063616c6c60405196611d2a88612217565b60278852870152660819985a5b195960ca1b60408701525190845af4611a5f6129b2565b506000611cee565b60405162461bcd60e51b815260048101859052602960248201527f45524331393637557067726164653a20756e737570706f727465642070726f786044820152681a58589b195555525160ba1b6064820152608490fd5b9091508681813d8311611dd5575b611dc58183612283565b810103126101f557519088611c4f565b503d611dbb565b634e487b7160e01b600052604160045260246000fd5b346101f55760403660031901126101f557611e0b612201565b336001600160a01b03821603611e2757610681906004356127ea565b60405162461bcd60e51b815260206004820152602f60248201527f416363657373436f6e74726f6c3a2063616e206f6e6c792072656e6f756e636560448201526e103937b632b9903337b91039b2b63360891b6064820152608490fd5b346101f55760203660031901126101f557611e9d6121eb565b611ea5612369565b6001600160a01b03908116908115611f06576101309182549182168103611ec857005b7f65ef617d87f7e47ab080058ac1d5ebf06817bbd817e49898ab9f9532405ecd9b92816020936001600160601b0360a01b16179055604051908152a1005b60405162461bcd60e51b8152602060048201526016602482015275496e76616c69642077616c6c6574206164647265737360501b6044820152606490fd5b346101f55760403660031901126101f557600435611f60612201565b816000526065602052611f7a600160406000200154612691565b81600052606560205260406000209060018060a01b0316908160005260205260ff6040600020541615611fa957005b8160005260656020526040600020816000526020526040600020600160ff1982541617905533917f2f8788117e7eff1d82e926ec794901d17c78024a50270940304540a733656f0d600080a4005b346101f55760403660031901126101f557602061201e6120156121eb565b60243590612ceb565b604051908152f35b346101f55760203660031901126101f55760043560005260656020526020600160406000200154604051908152f35b346101f55760203660031901126101f55760043560005261013160205260a06040600020805490600181015490600281015460066003830154920154926040519485526020850152604084015260608301526080820152f35b346101f55760003660031901126101f55761012d546040516001600160a01b039091168152602090f35b346101f55760203660031901126101f557600435600052610131602052604060002080546001820154916002810154600382015460048301549060058401549260ff600760068701549601541696604051968752602087015260408601526060850152608084015260a083015260c082015260038210156113f2576101009160e0820152f35b346101f55760203660031901126101f55760043563ffffffff60e01b81168091036101f557602090637965db0b60e01b81149081156121a3575b506040519015158152f35b6301ffc9a760e01b14905082612198565b346101f55760203660031901126101f5576020906001600160a01b036121d86121eb565b1660005261013582526040600020548152f35b600435906001600160a01b03821682036101f557565b602435906001600160a01b03821682036101f557565b606081019081106001600160401b03821117611ddc57604052565b60a081019081106001600160401b03821117611ddc57604052565b604081019081106001600160401b03821117611ddc57604052565b608081019081106001600160401b03821117611ddc57604052565b90601f801991011681019081106001600160401b03821117611ddc57604052565b6001600160401b038111611ddc57601f01601f191660200190565b9291926122cb826122a4565b916122d96040519384612283565b8294818452818301116101f5578281602093846000960137010152565b9181601f840112156101f5578235916001600160401b0383116101f5576020808501948460051b0101116101f557565b9181601f840112156101f5578235916001600160401b0383116101f557602083818601950101116101f557565b60409060031901126101f5576004359060243590565b3360009081527fffdfc1249c027f9191656349feb0761381bb32c9f557e01f419fd08754bf5a1b602090815260408083205490929060ff16156123ab57505050565b6123b433612aa7565b835190826123c183612268565b6042835284830193606036863783511561254957603085538351906001918210156125495790607860218601536041915b8183116124db575050506124995761244793859361247f936124706048946124959951988576020b1b1b2b9b9a1b7b73a3937b61d1030b1b1b7bab73a1604d1b8b97880152825192839160378901910161279b565b8401917001034b99036b4b9b9b4b733903937b6329607d1b60378401525180938684019061279b565b01036028810185520183612283565b5162461bcd60e51b8152918291600483016127be565b0390fd5b60648486519062461bcd60e51b825280600483015260248201527f537472696e67733a20686578206c656e67746820696e73756666696369656e746044820152fd5b909192600f81166010811015612535576f181899199a1a9b1b9c1cb0b131b232b360811b901a61250b8588612a80565b5360041c928015612521576000190191906123f2565b634e487b7160e01b82526011600452602482fd5b634e487b7160e01b83526032600452602483fd5b634e487b7160e01b81526032600452602490fd5b3360009081527f81f38e9243f5d7e7b286236b2559ecb000fe771b26a492da138bad81b0085fe160209081526040808320549092906000805160206134ce8339815191529060ff16156125b05750505050565b6125b933612aa7565b8451916125c583612268565b6042835284830193606036863783511561254957603085538351906001918210156125495790607860218601536041915b81831161264b575050506124995761244793859361247f936124706048946124959951988576020b1b1b2b9b9a1b7b73a3937b61d1030b1b1b7bab73a1604d1b8b97880152825192839160378901910161279b565b909192600f81166010811015612535576f181899199a1a9b1b9c1cb0b131b232b360811b901a61267b8588612a80565b5360041c928015612521576000190191906125f6565b600081815260209060658252604092838220338352835260ff8483205416156126ba5750505050565b6126c333612aa7565b8451916126cf83612268565b6042835284830193606036863783511561254957603085538351906001918210156125495790607860218601536041915b818311612755575050506124995761244793859361247f936124706048946124959951988576020b1b1b2b9b9a1b7b73a3937b61d1030b1b1b7bab73a1604d1b8b97880152825192839160378901910161279b565b909192600f81166010811015612535576f181899199a1a9b1b9c1cb0b131b232b360811b901a6127858588612a80565b5360041c92801561252157600019019190612700565b60005b8381106127ae5750506000910152565b818101518382015260200161279e565b604091602082526127de815180928160208601526020868601910161279b565b601f01601f1916010190565b906000918083526065602052604083209160018060a01b03169182845260205260ff60408420541661281b57505050565b8083526065602052604083208284526020526040832060ff1981541690557ff6391f5c32d9c69d2a47ea670b442974b53935d1edc7fd64eb21e047a839171b339380a4565b1561286757565b60405162461bcd60e51b815260206004820152602c60248201527f46756e6374696f6e206d7573742062652063616c6c6564207468726f7567682060448201526b19195b1959d85d1958d85b1b60a21b6064820152608490fd5b156128c857565b60405162461bcd60e51b815260206004820152602c60248201527f46756e6374696f6e206d7573742062652063616c6c6564207468726f7567682060448201526b6163746976652070726f787960a01b6064820152608490fd5b803b15612957576000805160206134ae83398151915280546001600160a01b0319166001600160a01b03909216919091179055565b60405162461bcd60e51b815260206004820152602d60248201527f455243313936373a206e657720696d706c656d656e746174696f6e206973206e60448201526c1bdd08184818dbdb9d1c9858dd609a1b6064820152608490fd5b3d156129dd573d906129c3826122a4565b916129d16040519384612283565b82523d6000602084013e565b606090565b91929015612a4457508151156129f6575090565b3b156129ff5790565b60405162461bcd60e51b815260206004820152601d60248201527f416464726573733a2063616c6c20746f206e6f6e2d636f6e74726163740000006044820152606490fd5b825190915015612a575750805190602001fd5b60405162461bcd60e51b815290819061249590600483016127be565b91908201809211610d7d57565b908151811015612a91570160200190565b634e487b7160e01b600052603260045260246000fd5b60405190612ab482612217565b602a8252602082016040368237825115612a9157603090538151600190811015612a9157607860218401536029905b808211612b37575050612af35790565b606460405162461bcd60e51b815260206004820152602060248201527f537472696e67733a20686578206c656e67746820696e73756666696369656e746044820152fd5b9091600f81166010811015612b90576f181899199a1a9b1b9c1cb0b131b232b360811b901a612b668486612a80565b5360041c918015612b7b576000190190612ae3565b60246000634e487b7160e01b81526011600452fd5b60246000634e487b7160e01b81526032600452fd5b15612bac57565b60405162461bcd60e51b815260206004820152602b60248201527f496e697469616c697a61626c653a20636f6e7472616374206973206e6f74206960448201526a6e697469616c697a696e6760a81b6064820152608490fd5b15612c0c57565b60405162461bcd60e51b815260206004820152601360248201527211d85b5948191bd95cc81b9bdd08195e1a5cdd606a1b6044820152606490fd5b15612c4e57565b60405162461bcd60e51b815260206004820152601260248201527111d85b59481b9bdd08195b991959081e595d60721b6044820152606490fd5b91908203918211610d7d57565b600260975414612ca6576002609755565b60405162461bcd60e51b815260206004820152601f60248201527f5265656e7472616e637947756172643a207265656e7472616e742063616c6c006044820152606490fd5b6000918252602090610131825260408320612d0881541515612c05565b6001600160a01b039182168085526101358452604085205460049092015490919080821015612dcb578491612d3c91612c88565b9261012d541691604460405180948193636eb1769f60e11b835260048301523060248301525afa928315612dc0578493612d8c575b5050808210612d7f57505090565b612d899250612c88565b90565b9080929350813d8311612db9575b612da48183612283565b81010312612db55751903880612d71565b8280fd5b503d612d9a565b6040513d86823e3d90fd5b505050505090565b15612dda57565b60405162461bcd60e51b815260206004820152600b60248201526a16995c9bc8185b5bdd5b9d60aa1b6044820152606490fd5b15612e1457565b60405162461bcd60e51b815260206004820152601860248201527f506f7274666f6c696f20646f6573206e6f7420657869737400000000000000006044820152606490fd5b15612e6057565b60405162461bcd60e51b815260206004820152601760248201527f52657761726420616c72656164792061737369676e65640000000000000000006044820152606490fd5b15612eac57565b60405162461bcd60e51b815260206004820152601660248201527511d85b5948185b1c9958591e4818dbdb5c1b195d195960521b6044820152606490fd5b15612ef157565b60405162461bcd60e51b815260206004820152601760248201527f496e73756666696369656e74207072697a6520706f6f6c0000000000000000006044820152606490fd5b15612f3d57565b60405162461bcd60e51b8152602060048201526011602482015270496e76616c6964207369676e617475726560781b6044820152606490fd5b60058110156113f25780612f875750565b60018103612fd45760405162461bcd60e51b815260206004820152601860248201527f45434453413a20696e76616c6964207369676e617475726500000000000000006044820152606490fd5b600281036130215760405162461bcd60e51b815260206004820152601f60248201527f45434453413a20696e76616c6964207369676e6174757265206c656e677468006044820152606490fd5b60031461302a57565b60405162461bcd60e51b815260206004820152602260248201527f45434453413a20696e76616c6964207369676e6174757265202773272076616c604482015261756560f01b6064820152608490fd5b9060418151146000146130a8576130a4916020820151906060604084015193015160001a906130b2565b9091565b5050600090600290565b9291907f7fffffffffffffffffffffffffffffff5d576e7357a4501ddfe92f46681b20a083116131355791608094939160ff602094604051948552168484015260408301526060820152600093849182805260015afa156131285781516001600160a01b03811615613122579190565b50600190565b50604051903d90823e3d90fd5b50505050600090600390565b91906001600160fb1b0381116101f55760051b809282370190565b9190811015612a915760051b0190565b81835290916001600160fb1b0383116101f55760209260051b809284830137010190565b1561319757565b60405162461bcd60e51b815260206004820152601d60248201527f416d6f756e74206d7573742062652067726561746572207468616e20300000006044820152606490fd5b6040516323b872dd60e01b60208201526001600160a01b0392831660248201529290911660448301526064808301939093529181526132239161321e82612232565b613225565b565b60018060a01b03169061327e60405161323d8161224d565b6020938482527f5361666545524332303a206c6f772d6c6576656c2063616c6c206661696c6564858301526000808587829751910182855af1611a5f6129b2565b8051918215918483156132f0575b5050509050156132995750565b6084906040519062461bcd60e51b82526004820152602a60248201527f5361666545524332303a204552433230206f7065726174696f6e20646964206e6044820152691bdd081cdd58d8d9595960b21b6064820152fd5b9193818094500103126133175782015190811515820361331457508038808461328c565b80fd5b5080fd5b60405163a9059cbb60e01b60208201526001600160a01b0390921660248301526044808301939093529181526132239161321e82612268565b1561335b57565b60405162461bcd60e51b8152602060048201526014602482015273125b9d985b1a59081c1bdc9d199bdb1a5bc8125160621b6044820152606490fd5b71233ab9b4b7a330b73a30b9bca3b0b6b2ab1960711b60206040516133bb8161224d565b601281520152603160f81b60206040516133d48161224d565b6001815201526040519060208201907f8b73c3c69bb8fe3d512ecc4cf759cc79239f7b179b0ffacaa9a75d522b39400f82527f2bb29ed076cd279b45ddb446da69e0f7dd06c132b9130c75e7c74f92e6ee5a5360408401527fc89efdaa54c0f20c7adf612882df0950f5a951637e0307cdcb4c672f298b8bc660608401524660808401523060a084015260a0835260c08301918383106001600160401b03841117611ddc576101029083604052845190209360e081019461190160f01b865260e28201520152604281526134a781612268565b5190209056fe360894a13ba1a3210667c828492db98dca3e2076cc3735a920a3ca505d382bbcef17b1f3c5a412f9c8e887e3abd186802afec7dc657fd3b7002bf87b128dd0b1a2646970667358221220af35b873b4e230a8b3c7b5aae95d38c0291611ccf86b6a665bbbf8158ab8712a64736f6c63430008110033",
  "linkReferences": {},
  "deployedLinkReferences": {}
}